{"contracts/Lottery.sol":{"Lottery":{"abi":[{"inputs":[],"stateMutability":"nonpayable","type":"constructor"},{"anonymous":false,"inputs":[{"indexed":true,"internalType":"address","name":"buyer","type":"address"},{"indexed":false,"internalType":"uint256","name":"amount","type":"uint256"}],"name":"TicketPurchased","type":"event"},{"anonymous":false,"inputs":[{"indexed":false,"internalType":"address","name":"first","type":"address"},{"indexed":false,"internalType":"address","name":"second","type":"address"},{"indexed":false,"internalType":"address","name":"third","type":"address"}],"name":"WinnersSelected","type":"event"},{"inputs":[],"name":"FIRST_PRIZE","outputs":[{"internalType":"uint256","name":"","type":"uint256"}],"stateMutability":"view","type":"function"},{"inputs":[],"name":"PRIZE_POOL_THRESHOLD","outputs":[{"internalType":"uint256","name":"","type":"uint256"}],"stateMutability":"view","type":"function"},{"inputs":[],"name":"SECOND_PRIZE","outputs":[{"internalType":"uint256","name":"","type":"uint256"}],"stateMutability":"view","type":"function"},{"inputs":[],"name":"THIRD_PRIZE","outputs":[{"internalType":"uint256","name":"","type":"uint256"}],"stateMutability":"view","type":"function"},{"inputs":[],"name":"TICKET_PRICE","outputs":[{"internalType":"uint256","name":"","type":"uint256"}],"stateMutability":"view","type":"function"},{"inputs":[{"internalType":"uint256","name":"numberOfTickets","type":"uint256"}],"name":"buyTickets","outputs":[],"stateMutability":"payable","type":"function"},{"inputs":[],"name":"isRoundActive","outputs":[{"internalType":"bool","name":"","type":"bool"}],"stateMutability":"view","type":"function"},{"inputs":[],"name":"owner","outputs":[{"internalType":"address","name":"","type":"address"}],"stateMutability":"view","type":"function"},{"inputs":[{"internalType":"uint256","name":"","type":"uint256"}],"name":"participants","outputs":[{"internalType":"address","name":"","type":"address"}],"stateMutability":"view","type":"function"},{"inputs":[{"internalType":"uint256","name":"","type":"uint256"}],"name":"pastWinners","outputs":[{"internalType":"address","name":"winnerAddress","type":"address"},{"internalType":"uint256","name":"prizeAmount","type":"uint256"}],"stateMutability":"view","type":"function"},{"inputs":[],"name":"prizePool","outputs":[{"internalType":"uint256","name":"","type":"uint256"}],"stateMutability":"view","type":"function"},{"inputs":[],"name":"roundNumber","outputs":[{"internalType":"uint256","name":"","type":"uint256"}],"stateMutability":"view","type":"function"},{"inputs":[],"name":"selectWinners","outputs":[],"stateMutability":"nonpayable","type":"function"},{"inputs":[],"name":"withdrawFunds","outputs":[],"stateMutability":"nonpayable","type":"function"}],"evm":{"bytecode":{"linkReferences":{},"object":"6080604052348015600f57600080fd5b50336000806101000a81548173ffffffffffffffffffffffffffffffffffffffff021916908373ffffffffffffffffffffffffffffffffffffffff1602179055506001600260006101000a81548160ff02191690831515021790555060016005819055506112fd806100826000396000f3fe6080604052600436106100dc5760003560e01c80634e2786fb1161007f57806399fb5af91161005957806399fb5af91461026a578063c5b2067a14610295578063e26ab09c146102c0578063e499e79c146102eb576100dc565b80634e2786fb146101e9578063719ce73e146102145780638da5cb5b1461023f576100dc565b806324600fc3116100bb57806324600fc31461014e5780632f3666371461016557806335c1d3491461018157806345945a45146101be576100dc565b806298071a146100e15780631a0de74c1461010c5780631a95f15f14610123575b600080fd5b3480156100ed57600080fd5b506100f6610329565b6040516101039190610d69565b60405180910390f35b34801561011857600080fd5b50610121610335565b005b34801561012f57600080fd5b50610138610910565b6040516101459190610d69565b60405180910390f35b34801561015a57600080fd5b5061016361091c565b005b61017f600480360381019061017a9190610db5565b610a13565b005b34801561018d57600080fd5b506101a860048036038101906101a39190610db5565b610bca565b6040516101b59190610e23565b60405180910390f35b3480156101ca57600080fd5b506101d3610c09565b6040516101e09190610e59565b60405180910390f35b3480156101f557600080fd5b506101fe610c1c565b60405161020b9190610d69565b60405180910390f35b34801561022057600080fd5b50610229610c22565b6040516102369190610d69565b60405180910390f35b34801561024b57600080fd5b50610254610c28565b6040516102619190610e23565b60405180910390f35b34801561027657600080fd5b5061027f610c4c565b60405161028c9190610d69565b60405180910390f35b3480156102a157600080fd5b506102aa610c58565b6040516102b79190610d69565b60405180910390f35b3480156102cc57600080fd5b506102d5610c64565b6040516102e29190610d69565b60405180910390f35b3480156102f757600080fd5b50610312600480360381019061030d9190610db5565b610c70565b604051610320929190610e74565b60405180910390f35b6722b1c8c1227a000081565b60008054906101000a900473ffffffffffffffffffffffffffffffffffffffff1673ffffffffffffffffffffffffffffffffffffffff163373ffffffffffffffffffffffffffffffffffffffff16146103c3576040517f08c379a00000000000000000000000000000000000000000000000000000000081526004016103ba90610efa565b60405180910390fd5b600260009054906101000a900460ff1615610413576040517f08c379a000000000000000000000000000000000000000000000000000000000815260040161040a90610f66565b60405180910390fd5b60038080549050101561045b576040517f08c379a000000000000000000000000000000000000000000000000000000000815260040161045290610fd2565b60405180910390fd5b600061046d6000600380549050610cb4565b905060006104816000600380549050610cb4565b905060006104956000600380549050610cb4565b90505b8282036104b6576104af6000600380549050610cb4565b9150610498565b5b828114806104c457508181145b156104e0576104d96000600380549050610cb4565b90506104b7565b6000600384815481106104f6576104f5610ff2565b5b9060005260206000200160009054906101000a900473ffffffffffffffffffffffffffffffffffffffff16905060006003848154811061053957610538610ff2565b5b9060005260206000200160009054906101000a900473ffffffffffffffffffffffffffffffffffffffff16905060006003848154811061057c5761057b610ff2565b5b9060005260206000200160009054906101000a900473ffffffffffffffffffffffffffffffffffffffff1690508273ffffffffffffffffffffffffffffffffffffffff166108fc6722b1c8c1227a00009081150290604051600060405180830381858888f193505050501580156105f7573d6000803e3d6000fd5b508173ffffffffffffffffffffffffffffffffffffffff166108fc6714d1120d7b1600009081150290604051600060405180830381858888f19350505050158015610646573d6000803e3d6000fd5b508073ffffffffffffffffffffffffffffffffffffffff166108fc670de0b6b3a76400009081150290604051600060405180830381858888f19350505050158015610695573d6000803e3d6000fd5b5060405180604001604052808473ffffffffffffffffffffffffffffffffffffffff1681526020016722b1c8c1227a000081525060046000600554815260200190815260200160002060008201518160000160006101000a81548173ffffffffffffffffffffffffffffffffffffffff021916908373ffffffffffffffffffffffffffffffffffffffff1602179055506020820151816001015590505060405180604001604052808373ffffffffffffffffffffffffffffffffffffffff1681526020016714d1120d7b1600008152506004600060016005546107789190611050565b815260200190815260200160002060008201518160000160006101000a81548173ffffffffffffffffffffffffffffffffffffffff021916908373ffffffffffffffffffffffffffffffffffffffff1602179055506020820151816001015590505060405180604001604052808273ffffffffffffffffffffffffffffffffffffffff168152602001670de0b6b3a76400008152506004600060026005546108209190611050565b815260200190815260200160002060008201518160000160006101000a81548173ffffffffffffffffffffffffffffffffffffffff021916908373ffffffffffffffffffffffffffffffffffffffff160217905550602082015181600101559050507fb261c3fa2e09c08a6ff87c99dee9759aa7c1e92afc3ff91467e22c7cf26553a98383836040516108b593929190611084565b60405180910390a16000600181905550600360006108d39190610d12565b6001600260006101000a81548160ff0219169083151502179055506003600560008282546109019190611050565b92505081905550505050505050565b6703782dace9d9000081565b60008054906101000a900473ffffffffffffffffffffffffffffffffffffffff1673ffffffffffffffffffffffffffffffffffffffff163373ffffffffffffffffffffffffffffffffffffffff16146109aa576040517f08c379a00000000000000000000000000000000000000000000000000000000081526004016109a190610efa565b60405180910390fd5b60008054906101000a900473ffffffffffffffffffffffffffffffffffffffff1673ffffffffffffffffffffffffffffffffffffffff166108fc479081150290604051600060405180830381858888f19350505050158015610a10573d6000803e3d6000fd5b50565b600260009054906101000a900460ff16610a62576040517f08c379a0000000000000000000000000000000000000000000000000000000008152600401610a5990611107565b60405180910390fd5b6703782dace9d9000081610a769190611127565b3414610ab7576040517f08c379a0000000000000000000000000000000000000000000000000000000008152600401610aae906111b5565b60405180910390fd5b60005b81811015610b32576003339080600181540180825580915050600190039060005260206000200160009091909190916101000a81548173ffffffffffffffffffffffffffffffffffffffff021916908373ffffffffffffffffffffffffffffffffffffffff1602179055508080600101915050610aba565b503460016000828254610b459190611050565b925050819055503373ffffffffffffffffffffffffffffffffffffffff167f0668f5b446eb814fe35b3206f43f14bd8567ba04ddaf7a3ee56516929ab22ccb82604051610b929190610d69565b60405180910390a2674563918244f4000060015410610bc7576000600260006101000a81548160ff0219169083151502179055505b50565b60038181548110610bda57600080fd5b906000526020600020016000915054906101000a900473ffffffffffffffffffffffffffffffffffffffff1681565b600260009054906101000a900460ff1681565b60055481565b60015481565b60008054906101000a900473ffffffffffffffffffffffffffffffffffffffff1681565b6714d1120d7b16000081565b670de0b6b3a764000081565b674563918244f4000081565b60046020528060005260406000206000915090508060000160009054906101000a900473ffffffffffffffffffffffffffffffffffffffff16908060010154905082565b6000828383610cc391906111d5565b4244600380549050604051602001610cdd9392919061122a565b6040516020818303038152906040528051906020012060001c610d009190611296565b610d0a9190611050565b905092915050565b5080546000825590600052602060002090810190610d309190610d33565b50565b5b80821115610d4c576000816000905550600101610d34565b5090565b6000819050919050565b610d6381610d50565b82525050565b6000602082019050610d7e6000830184610d5a565b92915050565b600080fd5b610d9281610d50565b8114610d9d57600080fd5b50565b600081359050610daf81610d89565b92915050565b600060208284031215610dcb57610dca610d84565b5b6000610dd984828501610da0565b91505092915050565b600073ffffffffffffffffffffffffffffffffffffffff82169050919050565b6000610e0d82610de2565b9050919050565b610e1d81610e02565b82525050565b6000602082019050610e386000830184610e14565b92915050565b60008115159050919050565b610e5381610e3e565b82525050565b6000602082019050610e6e6000830184610e4a565b92915050565b6000604082019050610e896000830185610e14565b610e966020830184610d5a565b9392505050565b600082825260208201905092915050565b7f4e6f7420746865206f776e657200000000000000000000000000000000000000600082015250565b6000610ee4600d83610e9d565b9150610eef82610eae565b602082019050919050565b60006020820190508181036000830152610f1381610ed7565b9050919050565b7f4c6f747465727920726f756e64206973207374696c6c20616374697665000000600082015250565b6000610f50601d83610e9d565b9150610f5b82610f1a565b602082019050919050565b60006020820190508181036000830152610f7f81610f43565b9050919050565b7f4e6f7420656e6f756768207061727469636970616e7473000000000000000000600082015250565b6000610fbc601783610e9d565b9150610fc782610f86565b602082019050919050565b60006020820190508181036000830152610feb81610faf565b9050919050565b7f4e487b7100000000000000000000000000000000000000000000000000000000600052603260045260246000fd5b7f4e487b7100000000000000000000000000000000000000000000000000000000600052601160045260246000fd5b600061105b82610d50565b915061106683610d50565b925082820190508082111561107e5761107d611021565b5b92915050565b60006060820190506110996000830186610e14565b6110a66020830185610e14565b6110b36040830184610e14565b949350505050565b7f4c6f747465727920726f756e64206973206e6f74206163746976650000000000600082015250565b60006110f1601b83610e9d565b91506110fc826110bb565b602082019050919050565b60006020820190508181036000830152611120816110e4565b9050919050565b600061113282610d50565b915061113d83610d50565b925082820261114b81610d50565b9150828204841483151761116257611161611021565b5b5092915050565b7f496e636f7272656374207061796d656e74000000000000000000000000000000600082015250565b600061119f601183610e9d565b91506111aa82611169565b602082019050919050565b600060208201905081810360008301526111ce81611192565b9050919050565b60006111e082610d50565b91506111eb83610d50565b925082820390508181111561120357611202611021565b5b92915050565b6000819050919050565b61122461121f82610d50565b611209565b82525050565b60006112368286611213565b6020820191506112468285611213565b6020820191506112568284611213565b602082019150819050949350505050565b7f4e487b7100000000000000000000000000000000000000000000000000000000600052601260045260246000fd5b60006112a182610d50565b91506112ac83610d50565b9250826112bc576112bb611267565b5b82820690509291505056fea2646970667358221220d16315d285981377e39c1ade572386eb66567e72d70b12a7d420008f78e3cbae64736f6c634300081c0033","opcodes":"PUSH1 0x80 PUSH1 0x40 MSTORE CALLVALUE DUP1 ISZERO PUSH1 0xF JUMPI PUSH1 0x0 DUP1 REVERT JUMPDEST POP CALLER PUSH1 0x0 DUP1 PUSH2 0x100 EXP DUP2 SLOAD DUP2 PUSH20 0xFFFFFFFFFFFFFFFFFFFFFFFFFFFFFFFFFFFFFFFF MUL NOT AND SWAP1 DUP4 PUSH20 0xFFFFFFFFFFFFFFFFFFFFFFFFFFFFFFFFFFFFFFFF AND MUL OR SWAP1 SSTORE POP PUSH1 0x1 PUSH1 0x2 PUSH1 0x0 PUSH2 0x100 EXP DUP2 SLOAD DUP2 PUSH1 0xFF MUL NOT AND SWAP1 DUP4 ISZERO ISZERO MUL OR SWAP1 SSTORE POP PUSH1 0x1 PUSH1 0x5 DUP2 SWAP1 SSTORE POP PUSH2 0x12FD DUP1 PUSH2 0x82 PUSH1 0x0 CODECOPY PUSH1 0x0 RETURN INVALID PUSH1 0x80 PUSH1 0x40 MSTORE PUSH1 0x4 CALLDATASIZE LT PUSH2 0xDC JUMPI PUSH1 0x0 CALLDATALOAD PUSH1 0xE0 SHR DUP1 PUSH4 0x4E2786FB GT PUSH2 0x7F JUMPI DUP1 PUSH4 0x99FB5AF9 GT PUSH2 0x59 JUMPI DUP1 PUSH4 0x99FB5AF9 EQ PUSH2 0x26A JUMPI DUP1 PUSH4 0xC5B2067A EQ PUSH2 0x295 JUMPI DUP1 PUSH4 0xE26AB09C EQ PUSH2 0x2C0 JUMPI DUP1 PUSH4 0xE499E79C EQ PUSH2 0x2EB JUMPI PUSH2 0xDC JUMP JUMPDEST DUP1 PUSH4 0x4E2786FB EQ PUSH2 0x1E9 JUMPI DUP1 PUSH4 0x719CE73E EQ PUSH2 0x214 JUMPI DUP1 PUSH4 0x8DA5CB5B EQ PUSH2 0x23F JUMPI PUSH2 0xDC JUMP JUMPDEST DUP1 PUSH4 0x24600FC3 GT PUSH2 0xBB JUMPI DUP1 PUSH4 0x24600FC3 EQ PUSH2 0x14E JUMPI DUP1 PUSH4 0x2F366637 EQ PUSH2 0x165 JUMPI DUP1 PUSH4 0x35C1D349 EQ PUSH2 0x181 JUMPI DUP1 PUSH4 0x45945A45 EQ PUSH2 0x1BE JUMPI PUSH2 0xDC JUMP JUMPDEST DUP1 PUSH3 0x98071A EQ PUSH2 0xE1 JUMPI DUP1 PUSH4 0x1A0DE74C EQ PUSH2 0x10C JUMPI DUP1 PUSH4 0x1A95F15F EQ PUSH2 0x123 JUMPI JUMPDEST PUSH1 0x0 DUP1 REVERT JUMPDEST CALLVALUE DUP1 ISZERO PUSH2 0xED JUMPI PUSH1 0x0 DUP1 REVERT JUMPDEST POP PUSH2 0xF6 PUSH2 0x329 JUMP JUMPDEST PUSH1 0x40 MLOAD PUSH2 0x103 SWAP2 SWAP1 PUSH2 0xD69 JUMP JUMPDEST PUSH1 0x40 MLOAD DUP1 SWAP2 SUB SWAP1 RETURN JUMPDEST CALLVALUE DUP1 ISZERO PUSH2 0x118 JUMPI PUSH1 0x0 DUP1 REVERT JUMPDEST POP PUSH2 0x121 PUSH2 0x335 JUMP JUMPDEST STOP JUMPDEST CALLVALUE DUP1 ISZERO PUSH2 0x12F JUMPI PUSH1 0x0 DUP1 REVERT JUMPDEST POP PUSH2 0x138 PUSH2 0x910 JUMP JUMPDEST PUSH1 0x40 MLOAD PUSH2 0x145 SWAP2 SWAP1 PUSH2 0xD69 JUMP JUMPDEST PUSH1 0x40 MLOAD DUP1 SWAP2 SUB SWAP1 RETURN JUMPDEST CALLVALUE DUP1 ISZERO PUSH2 0x15A JUMPI PUSH1 0x0 DUP1 REVERT JUMPDEST POP PUSH2 0x163 PUSH2 0x91C JUMP JUMPDEST STOP JUMPDEST PUSH2 0x17F PUSH1 0x4 DUP1 CALLDATASIZE SUB DUP2 ADD SWAP1 PUSH2 0x17A SWAP2 SWAP1 PUSH2 0xDB5 JUMP JUMPDEST PUSH2 0xA13 JUMP JUMPDEST STOP JUMPDEST CALLVALUE DUP1 ISZERO PUSH2 0x18D JUMPI PUSH1 0x0 DUP1 REVERT JUMPDEST POP PUSH2 0x1A8 PUSH1 0x4 DUP1 CALLDATASIZE SUB DUP2 ADD SWAP1 PUSH2 0x1A3 SWAP2 SWAP1 PUSH2 0xDB5 JUMP JUMPDEST PUSH2 0xBCA JUMP JUMPDEST PUSH1 0x40 MLOAD PUSH2 0x1B5 SWAP2 SWAP1 PUSH2 0xE23 JUMP JUMPDEST PUSH1 0x40 MLOAD DUP1 SWAP2 SUB SWAP1 RETURN JUMPDEST CALLVALUE DUP1 ISZERO PUSH2 0x1CA JUMPI PUSH1 0x0 DUP1 REVERT JUMPDEST POP PUSH2 0x1D3 PUSH2 0xC09 JUMP JUMPDEST PUSH1 0x40 MLOAD PUSH2 0x1E0 SWAP2 SWAP1 PUSH2 0xE59 JUMP JUMPDEST PUSH1 0x40 MLOAD DUP1 SWAP2 SUB SWAP1 RETURN JUMPDEST CALLVALUE DUP1 ISZERO PUSH2 0x1F5 JUMPI PUSH1 0x0 DUP1 REVERT JUMPDEST POP PUSH2 0x1FE PUSH2 0xC1C JUMP JUMPDEST PUSH1 0x40 MLOAD PUSH2 0x20B SWAP2 SWAP1 PUSH2 0xD69 JUMP JUMPDEST PUSH1 0x40 MLOAD DUP1 SWAP2 SUB SWAP1 RETURN JUMPDEST CALLVALUE DUP1 ISZERO PUSH2 0x220 JUMPI PUSH1 0x0 DUP1 REVERT JUMPDEST POP PUSH2 0x229 PUSH2 0xC22 JUMP JUMPDEST PUSH1 0x40 MLOAD PUSH2 0x236 SWAP2 SWAP1 PUSH2 0xD69 JUMP JUMPDEST PUSH1 0x40 MLOAD DUP1 SWAP2 SUB SWAP1 RETURN JUMPDEST CALLVALUE DUP1 ISZERO PUSH2 0x24B JUMPI PUSH1 0x0 DUP1 REVERT JUMPDEST POP PUSH2 0x254 PUSH2 0xC28 JUMP JUMPDEST PUSH1 0x40 MLOAD PUSH2 0x261 SWAP2 SWAP1 PUSH2 0xE23 JUMP JUMPDEST PUSH1 0x40 MLOAD DUP1 SWAP2 SUB SWAP1 RETURN JUMPDEST CALLVALUE DUP1 ISZERO PUSH2 0x276 JUMPI PUSH1 0x0 DUP1 REVERT JUMPDEST POP PUSH2 0x27F PUSH2 0xC4C JUMP JUMPDEST PUSH1 0x40 MLOAD PUSH2 0x28C SWAP2 SWAP1 PUSH2 0xD69 JUMP JUMPDEST PUSH1 0x40 MLOAD DUP1 SWAP2 SUB SWAP1 RETURN JUMPDEST CALLVALUE DUP1 ISZERO PUSH2 0x2A1 JUMPI PUSH1 0x0 DUP1 REVERT JUMPDEST POP PUSH2 0x2AA PUSH2 0xC58 JUMP JUMPDEST PUSH1 0x40 MLOAD PUSH2 0x2B7 SWAP2 SWAP1 PUSH2 0xD69 JUMP JUMPDEST PUSH1 0x40 MLOAD DUP1 SWAP2 SUB SWAP1 RETURN JUMPDEST CALLVALUE DUP1 ISZERO PUSH2 0x2CC JUMPI PUSH1 0x0 DUP1 REVERT JUMPDEST POP PUSH2 0x2D5 PUSH2 0xC64 JUMP JUMPDEST PUSH1 0x40 MLOAD PUSH2 0x2E2 SWAP2 SWAP1 PUSH2 0xD69 JUMP JUMPDEST PUSH1 0x40 MLOAD DUP1 SWAP2 SUB SWAP1 RETURN JUMPDEST CALLVALUE DUP1 ISZERO PUSH2 0x2F7 JUMPI PUSH1 0x0 DUP1 REVERT JUMPDEST POP PUSH2 0x312 PUSH1 0x4 DUP1 CALLDATASIZE SUB DUP2 ADD SWAP1 PUSH2 0x30D SWAP2 SWAP1 PUSH2 0xDB5 JUMP JUMPDEST PUSH2 0xC70 JUMP JUMPDEST PUSH1 0x40 MLOAD PUSH2 0x320 SWAP3 SWAP2 SWAP1 PUSH2 0xE74 JUMP JUMPDEST PUSH1 0x40 MLOAD DUP1 SWAP2 SUB SWAP1 RETURN JUMPDEST PUSH8 0x22B1C8C1227A0000 DUP2 JUMP JUMPDEST PUSH1 0x0 DUP1 SLOAD SWAP1 PUSH2 0x100 EXP SWAP1 DIV PUSH20 0xFFFFFFFFFFFFFFFFFFFFFFFFFFFFFFFFFFFFFFFF AND PUSH20 0xFFFFFFFFFFFFFFFFFFFFFFFFFFFFFFFFFFFFFFFF AND CALLER PUSH20 0xFFFFFFFFFFFFFFFFFFFFFFFFFFFFFFFFFFFFFFFF AND EQ PUSH2 0x3C3 JUMPI PUSH1 0x40 MLOAD PUSH32 0x8C379A000000000000000000000000000000000000000000000000000000000 DUP2 MSTORE PUSH1 0x4 ADD PUSH2 0x3BA SWAP1 PUSH2 0xEFA JUMP JUMPDEST PUSH1 0x40 MLOAD DUP1 SWAP2 SUB SWAP1 REVERT JUMPDEST PUSH1 0x2 PUSH1 0x0 SWAP1 SLOAD SWAP1 PUSH2 0x100 EXP SWAP1 DIV PUSH1 0xFF AND ISZERO PUSH2 0x413 JUMPI PUSH1 0x40 MLOAD PUSH32 0x8C379A000000000000000000000000000000000000000000000000000000000 DUP2 MSTORE PUSH1 0x4 ADD PUSH2 0x40A SWAP1 PUSH2 0xF66 JUMP JUMPDEST PUSH1 0x40 MLOAD DUP1 SWAP2 SUB SWAP1 REVERT JUMPDEST PUSH1 0x3 DUP1 DUP1 SLOAD SWAP1 POP LT ISZERO PUSH2 0x45B JUMPI PUSH1 0x40 MLOAD PUSH32 0x8C379A000000000000000000000000000000000000000000000000000000000 DUP2 MSTORE PUSH1 0x4 ADD PUSH2 0x452 SWAP1 PUSH2 0xFD2 JUMP JUMPDEST PUSH1 0x40 MLOAD DUP1 SWAP2 SUB SWAP1 REVERT JUMPDEST PUSH1 0x0 PUSH2 0x46D PUSH1 0x0 PUSH1 0x3 DUP1 SLOAD SWAP1 POP PUSH2 0xCB4 JUMP JUMPDEST SWAP1 POP PUSH1 0x0 PUSH2 0x481 PUSH1 0x0 PUSH1 0x3 DUP1 SLOAD SWAP1 POP PUSH2 0xCB4 JUMP JUMPDEST SWAP1 POP PUSH1 0x0 PUSH2 0x495 PUSH1 0x0 PUSH1 0x3 DUP1 SLOAD SWAP1 POP PUSH2 0xCB4 JUMP JUMPDEST SWAP1 POP JUMPDEST DUP3 DUP3 SUB PUSH2 0x4B6 JUMPI PUSH2 0x4AF PUSH1 0x0 PUSH1 0x3 DUP1 SLOAD SWAP1 POP PUSH2 0xCB4 JUMP JUMPDEST SWAP2 POP PUSH2 0x498 JUMP JUMPDEST JUMPDEST DUP3 DUP2 EQ DUP1 PUSH2 0x4C4 JUMPI POP DUP2 DUP2 EQ JUMPDEST ISZERO PUSH2 0x4E0 JUMPI PUSH2 0x4D9 PUSH1 0x0 PUSH1 0x3 DUP1 SLOAD SWAP1 POP PUSH2 0xCB4 JUMP JUMPDEST SWAP1 POP PUSH2 0x4B7 JUMP JUMPDEST PUSH1 0x0 PUSH1 0x3 DUP5 DUP2 SLOAD DUP2 LT PUSH2 0x4F6 JUMPI PUSH2 0x4F5 PUSH2 0xFF2 JUMP JUMPDEST JUMPDEST SWAP1 PUSH1 0x0 MSTORE PUSH1 0x20 PUSH1 0x0 KECCAK256 ADD PUSH1 0x0 SWAP1 SLOAD SWAP1 PUSH2 0x100 EXP SWAP1 DIV PUSH20 0xFFFFFFFFFFFFFFFFFFFFFFFFFFFFFFFFFFFFFFFF AND SWAP1 POP PUSH1 0x0 PUSH1 0x3 DUP5 DUP2 SLOAD DUP2 LT PUSH2 0x539 JUMPI PUSH2 0x538 PUSH2 0xFF2 JUMP JUMPDEST JUMPDEST SWAP1 PUSH1 0x0 MSTORE PUSH1 0x20 PUSH1 0x0 KECCAK256 ADD PUSH1 0x0 SWAP1 SLOAD SWAP1 PUSH2 0x100 EXP SWAP1 DIV PUSH20 0xFFFFFFFFFFFFFFFFFFFFFFFFFFFFFFFFFFFFFFFF AND SWAP1 POP PUSH1 0x0 PUSH1 0x3 DUP5 DUP2 SLOAD DUP2 LT PUSH2 0x57C JUMPI PUSH2 0x57B PUSH2 0xFF2 JUMP JUMPDEST JUMPDEST SWAP1 PUSH1 0x0 MSTORE PUSH1 0x20 PUSH1 0x0 KECCAK256 ADD PUSH1 0x0 SWAP1 SLOAD SWAP1 PUSH2 0x100 EXP SWAP1 DIV PUSH20 0xFFFFFFFFFFFFFFFFFFFFFFFFFFFFFFFFFFFFFFFF AND SWAP1 POP DUP3 PUSH20 0xFFFFFFFFFFFFFFFFFFFFFFFFFFFFFFFFFFFFFFFF AND PUSH2 0x8FC PUSH8 0x22B1C8C1227A0000 SWAP1 DUP2 ISZERO MUL SWAP1 PUSH1 0x40 MLOAD PUSH1 0x0 PUSH1 0x40 MLOAD DUP1 DUP4 SUB DUP2 DUP6 DUP9 DUP9 CALL SWAP4 POP POP POP POP ISZERO DUP1 ISZERO PUSH2 0x5F7 JUMPI RETURNDATASIZE PUSH1 0x0 DUP1 RETURNDATACOPY RETURNDATASIZE PUSH1 0x0 REVERT JUMPDEST POP DUP2 PUSH20 0xFFFFFFFFFFFFFFFFFFFFFFFFFFFFFFFFFFFFFFFF AND PUSH2 0x8FC PUSH8 0x14D1120D7B160000 SWAP1 DUP2 ISZERO MUL SWAP1 PUSH1 0x40 MLOAD PUSH1 0x0 PUSH1 0x40 MLOAD DUP1 DUP4 SUB DUP2 DUP6 DUP9 DUP9 CALL SWAP4 POP POP POP POP ISZERO DUP1 ISZERO PUSH2 0x646 JUMPI RETURNDATASIZE PUSH1 0x0 DUP1 RETURNDATACOPY RETURNDATASIZE PUSH1 0x0 REVERT JUMPDEST POP DUP1 PUSH20 0xFFFFFFFFFFFFFFFFFFFFFFFFFFFFFFFFFFFFFFFF AND PUSH2 0x8FC PUSH8 0xDE0B6B3A7640000 SWAP1 DUP2 ISZERO MUL SWAP1 PUSH1 0x40 MLOAD PUSH1 0x0 PUSH1 0x40 MLOAD DUP1 DUP4 SUB DUP2 DUP6 DUP9 DUP9 CALL SWAP4 POP POP POP POP ISZERO DUP1 ISZERO PUSH2 0x695 JUMPI RETURNDATASIZE PUSH1 0x0 DUP1 RETURNDATACOPY RETURNDATASIZE PUSH1 0x0 REVERT JUMPDEST POP PUSH1 0x40 MLOAD DUP1 PUSH1 0x40 ADD PUSH1 0x40 MSTORE DUP1 DUP5 PUSH20 0xFFFFFFFFFFFFFFFFFFFFFFFFFFFFFFFFFFFFFFFF AND DUP2 MSTORE PUSH1 0x20 ADD PUSH8 0x22B1C8C1227A0000 DUP2 MSTORE POP PUSH1 0x4 PUSH1 0x0 PUSH1 0x5 SLOAD DUP2 MSTORE PUSH1 0x20 ADD SWAP1 DUP2 MSTORE PUSH1 0x20 ADD PUSH1 0x0 KECCAK256 PUSH1 0x0 DUP3 ADD MLOAD DUP2 PUSH1 0x0 ADD PUSH1 0x0 PUSH2 0x100 EXP DUP2 SLOAD DUP2 PUSH20 0xFFFFFFFFFFFFFFFFFFFFFFFFFFFFFFFFFFFFFFFF MUL NOT AND SWAP1 DUP4 PUSH20 0xFFFFFFFFFFFFFFFFFFFFFFFFFFFFFFFFFFFFFFFF AND MUL OR SWAP1 SSTORE POP PUSH1 0x20 DUP3 ADD MLOAD DUP2 PUSH1 0x1 ADD SSTORE SWAP1 POP POP PUSH1 0x40 MLOAD DUP1 PUSH1 0x40 ADD PUSH1 0x40 MSTORE DUP1 DUP4 PUSH20 0xFFFFFFFFFFFFFFFFFFFFFFFFFFFFFFFFFFFFFFFF AND DUP2 MSTORE PUSH1 0x20 ADD PUSH8 0x14D1120D7B160000 DUP2 MSTORE POP PUSH1 0x4 PUSH1 0x0 PUSH1 0x1 PUSH1 0x5 SLOAD PUSH2 0x778 SWAP2 SWAP1 PUSH2 0x1050 JUMP JUMPDEST DUP2 MSTORE PUSH1 0x20 ADD SWAP1 DUP2 MSTORE PUSH1 0x20 ADD PUSH1 0x0 KECCAK256 PUSH1 0x0 DUP3 ADD MLOAD DUP2 PUSH1 0x0 ADD PUSH1 0x0 PUSH2 0x100 EXP DUP2 SLOAD DUP2 PUSH20 0xFFFFFFFFFFFFFFFFFFFFFFFFFFFFFFFFFFFFFFFF MUL NOT AND SWAP1 DUP4 PUSH20 0xFFFFFFFFFFFFFFFFFFFFFFFFFFFFFFFFFFFFFFFF AND MUL OR SWAP1 SSTORE POP PUSH1 0x20 DUP3 ADD MLOAD DUP2 PUSH1 0x1 ADD SSTORE SWAP1 POP POP PUSH1 0x40 MLOAD DUP1 PUSH1 0x40 ADD PUSH1 0x40 MSTORE DUP1 DUP3 PUSH20 0xFFFFFFFFFFFFFFFFFFFFFFFFFFFFFFFFFFFFFFFF AND DUP2 MSTORE PUSH1 0x20 ADD PUSH8 0xDE0B6B3A7640000 DUP2 MSTORE POP PUSH1 0x4 PUSH1 0x0 PUSH1 0x2 PUSH1 0x5 SLOAD PUSH2 0x820 SWAP2 SWAP1 PUSH2 0x1050 JUMP JUMPDEST DUP2 MSTORE PUSH1 0x20 ADD SWAP1 DUP2 MSTORE PUSH1 0x20 ADD PUSH1 0x0 KECCAK256 PUSH1 0x0 DUP3 ADD MLOAD DUP2 PUSH1 0x0 ADD PUSH1 0x0 PUSH2 0x100 EXP DUP2 SLOAD DUP2 PUSH20 0xFFFFFFFFFFFFFFFFFFFFFFFFFFFFFFFFFFFFFFFF MUL NOT AND SWAP1 DUP4 PUSH20 0xFFFFFFFFFFFFFFFFFFFFFFFFFFFFFFFFFFFFFFFF AND MUL OR SWAP1 SSTORE POP PUSH1 0x20 DUP3 ADD MLOAD DUP2 PUSH1 0x1 ADD SSTORE SWAP1 POP POP PUSH32 0xB261C3FA2E09C08A6FF87C99DEE9759AA7C1E92AFC3FF91467E22C7CF26553A9 DUP4 DUP4 DUP4 PUSH1 0x40 MLOAD PUSH2 0x8B5 SWAP4 SWAP3 SWAP2 SWAP1 PUSH2 0x1084 JUMP JUMPDEST PUSH1 0x40 MLOAD DUP1 SWAP2 SUB SWAP1 LOG1 PUSH1 0x0 PUSH1 0x1 DUP2 SWAP1 SSTORE POP PUSH1 0x3 PUSH1 0x0 PUSH2 0x8D3 SWAP2 SWAP1 PUSH2 0xD12 JUMP JUMPDEST PUSH1 0x1 PUSH1 0x2 PUSH1 0x0 PUSH2 0x100 EXP DUP2 SLOAD DUP2 PUSH1 0xFF MUL NOT AND SWAP1 DUP4 ISZERO ISZERO MUL OR SWAP1 SSTORE POP PUSH1 0x3 PUSH1 0x5 PUSH1 0x0 DUP3 DUP3 SLOAD PUSH2 0x901 SWAP2 SWAP1 PUSH2 0x1050 JUMP JUMPDEST SWAP3 POP POP DUP2 SWAP1 SSTORE POP POP POP POP POP POP POP JUMP JUMPDEST PUSH8 0x3782DACE9D90000 DUP2 JUMP JUMPDEST PUSH1 0x0 DUP1 SLOAD SWAP1 PUSH2 0x100 EXP SWAP1 DIV PUSH20 0xFFFFFFFFFFFFFFFFFFFFFFFFFFFFFFFFFFFFFFFF AND PUSH20 0xFFFFFFFFFFFFFFFFFFFFFFFFFFFFFFFFFFFFFFFF AND CALLER PUSH20 0xFFFFFFFFFFFFFFFFFFFFFFFFFFFFFFFFFFFFFFFF AND EQ PUSH2 0x9AA JUMPI PUSH1 0x40 MLOAD PUSH32 0x8C379A000000000000000000000000000000000000000000000000000000000 DUP2 MSTORE PUSH1 0x4 ADD PUSH2 0x9A1 SWAP1 PUSH2 0xEFA JUMP JUMPDEST PUSH1 0x40 MLOAD DUP1 SWAP2 SUB SWAP1 REVERT JUMPDEST PUSH1 0x0 DUP1 SLOAD SWAP1 PUSH2 0x100 EXP SWAP1 DIV PUSH20 0xFFFFFFFFFFFFFFFFFFFFFFFFFFFFFFFFFFFFFFFF AND PUSH20 0xFFFFFFFFFFFFFFFFFFFFFFFFFFFFFFFFFFFFFFFF AND PUSH2 0x8FC SELFBALANCE SWAP1 DUP2 ISZERO MUL SWAP1 PUSH1 0x40 MLOAD PUSH1 0x0 PUSH1 0x40 MLOAD DUP1 DUP4 SUB DUP2 DUP6 DUP9 DUP9 CALL SWAP4 POP POP POP POP ISZERO DUP1 ISZERO PUSH2 0xA10 JUMPI RETURNDATASIZE PUSH1 0x0 DUP1 RETURNDATACOPY RETURNDATASIZE PUSH1 0x0 REVERT JUMPDEST POP JUMP JUMPDEST PUSH1 0x2 PUSH1 0x0 SWAP1 SLOAD SWAP1 PUSH2 0x100 EXP SWAP1 DIV PUSH1 0xFF AND PUSH2 0xA62 JUMPI PUSH1 0x40 MLOAD PUSH32 0x8C379A000000000000000000000000000000000000000000000000000000000 DUP2 MSTORE PUSH1 0x4 ADD PUSH2 0xA59 SWAP1 PUSH2 0x1107 JUMP JUMPDEST PUSH1 0x40 MLOAD DUP1 SWAP2 SUB SWAP1 REVERT JUMPDEST PUSH8 0x3782DACE9D90000 DUP2 PUSH2 0xA76 SWAP2 SWAP1 PUSH2 0x1127 JUMP JUMPDEST CALLVALUE EQ PUSH2 0xAB7 JUMPI PUSH1 0x40 MLOAD PUSH32 0x8C379A000000000000000000000000000000000000000000000000000000000 DUP2 MSTORE PUSH1 0x4 ADD PUSH2 0xAAE SWAP1 PUSH2 0x11B5 JUMP JUMPDEST PUSH1 0x40 MLOAD DUP1 SWAP2 SUB SWAP1 REVERT JUMPDEST PUSH1 0x0 JUMPDEST DUP2 DUP2 LT ISZERO PUSH2 0xB32 JUMPI PUSH1 0x3 CALLER SWAP1 DUP1 PUSH1 0x1 DUP2 SLOAD ADD DUP1 DUP3 SSTORE DUP1 SWAP2 POP POP PUSH1 0x1 SWAP1 SUB SWAP1 PUSH1 0x0 MSTORE PUSH1 0x20 PUSH1 0x0 KECCAK256 ADD PUSH1 0x0 SWAP1 SWAP2 SWAP1 SWAP2 SWAP1 SWAP2 PUSH2 0x100 EXP DUP2 SLOAD DUP2 PUSH20 0xFFFFFFFFFFFFFFFFFFFFFFFFFFFFFFFFFFFFFFFF MUL NOT AND SWAP1 DUP4 PUSH20 0xFFFFFFFFFFFFFFFFFFFFFFFFFFFFFFFFFFFFFFFF AND MUL OR SWAP1 SSTORE POP DUP1 DUP1 PUSH1 0x1 ADD SWAP2 POP POP PUSH2 0xABA JUMP JUMPDEST POP CALLVALUE PUSH1 0x1 PUSH1 0x0 DUP3 DUP3 SLOAD PUSH2 0xB45 SWAP2 SWAP1 PUSH2 0x1050 JUMP JUMPDEST SWAP3 POP POP DUP2 SWAP1 SSTORE POP CALLER PUSH20 0xFFFFFFFFFFFFFFFFFFFFFFFFFFFFFFFFFFFFFFFF AND PUSH32 0x668F5B446EB814FE35B3206F43F14BD8567BA04DDAF7A3EE56516929AB22CCB DUP3 PUSH1 0x40 MLOAD PUSH2 0xB92 SWAP2 SWAP1 PUSH2 0xD69 JUMP JUMPDEST PUSH1 0x40 MLOAD DUP1 SWAP2 SUB SWAP1 LOG2 PUSH8 0x4563918244F40000 PUSH1 0x1 SLOAD LT PUSH2 0xBC7 JUMPI PUSH1 0x0 PUSH1 0x2 PUSH1 0x0 PUSH2 0x100 EXP DUP2 SLOAD DUP2 PUSH1 0xFF MUL NOT AND SWAP1 DUP4 ISZERO ISZERO MUL OR SWAP1 SSTORE POP JUMPDEST POP JUMP JUMPDEST PUSH1 0x3 DUP2 DUP2 SLOAD DUP2 LT PUSH2 0xBDA JUMPI PUSH1 0x0 DUP1 REVERT JUMPDEST SWAP1 PUSH1 0x0 MSTORE PUSH1 0x20 PUSH1 0x0 KECCAK256 ADD PUSH1 0x0 SWAP2 POP SLOAD SWAP1 PUSH2 0x100 EXP SWAP1 DIV PUSH20 0xFFFFFFFFFFFFFFFFFFFFFFFFFFFFFFFFFFFFFFFF AND DUP2 JUMP JUMPDEST PUSH1 0x2 PUSH1 0x0 SWAP1 SLOAD SWAP1 PUSH2 0x100 EXP SWAP1 DIV PUSH1 0xFF AND DUP2 JUMP JUMPDEST PUSH1 0x5 SLOAD DUP2 JUMP JUMPDEST PUSH1 0x1 SLOAD DUP2 JUMP JUMPDEST PUSH1 0x0 DUP1 SLOAD SWAP1 PUSH2 0x100 EXP SWAP1 DIV PUSH20 0xFFFFFFFFFFFFFFFFFFFFFFFFFFFFFFFFFFFFFFFF AND DUP2 JUMP JUMPDEST PUSH8 0x14D1120D7B160000 DUP2 JUMP JUMPDEST PUSH8 0xDE0B6B3A7640000 DUP2 JUMP JUMPDEST PUSH8 0x4563918244F40000 DUP2 JUMP JUMPDEST PUSH1 0x4 PUSH1 0x20 MSTORE DUP1 PUSH1 0x0 MSTORE PUSH1 0x40 PUSH1 0x0 KECCAK256 PUSH1 0x0 SWAP2 POP SWAP1 POP DUP1 PUSH1 0x0 ADD PUSH1 0x0 SWAP1 SLOAD SWAP1 PUSH2 0x100 EXP SWAP1 DIV PUSH20 0xFFFFFFFFFFFFFFFFFFFFFFFFFFFFFFFFFFFFFFFF AND SWAP1 DUP1 PUSH1 0x1 ADD SLOAD SWAP1 POP DUP3 JUMP JUMPDEST PUSH1 0x0 DUP3 DUP4 DUP4 PUSH2 0xCC3 SWAP2 SWAP1 PUSH2 0x11D5 JUMP JUMPDEST TIMESTAMP PREVRANDAO PUSH1 0x3 DUP1 SLOAD SWAP1 POP PUSH1 0x40 MLOAD PUSH1 0x20 ADD PUSH2 0xCDD SWAP4 SWAP3 SWAP2 SWAP1 PUSH2 0x122A JUMP JUMPDEST PUSH1 0x40 MLOAD PUSH1 0x20 DUP2 DUP4 SUB SUB DUP2 MSTORE SWAP1 PUSH1 0x40 MSTORE DUP1 MLOAD SWAP1 PUSH1 0x20 ADD KECCAK256 PUSH1 0x0 SHR PUSH2 0xD00 SWAP2 SWAP1 PUSH2 0x1296 JUMP JUMPDEST PUSH2 0xD0A SWAP2 SWAP1 PUSH2 0x1050 JUMP JUMPDEST SWAP1 POP SWAP3 SWAP2 POP POP JUMP JUMPDEST POP DUP1 SLOAD PUSH1 0x0 DUP3 SSTORE SWAP1 PUSH1 0x0 MSTORE PUSH1 0x20 PUSH1 0x0 KECCAK256 SWAP1 DUP2 ADD SWAP1 PUSH2 0xD30 SWAP2 SWAP1 PUSH2 0xD33 JUMP JUMPDEST POP JUMP JUMPDEST JUMPDEST DUP1 DUP3 GT ISZERO PUSH2 0xD4C JUMPI PUSH1 0x0 DUP2 PUSH1 0x0 SWAP1 SSTORE POP PUSH1 0x1 ADD PUSH2 0xD34 JUMP JUMPDEST POP SWAP1 JUMP JUMPDEST PUSH1 0x0 DUP2 SWAP1 POP SWAP2 SWAP1 POP JUMP JUMPDEST PUSH2 0xD63 DUP2 PUSH2 0xD50 JUMP JUMPDEST DUP3 MSTORE POP POP JUMP JUMPDEST PUSH1 0x0 PUSH1 0x20 DUP3 ADD SWAP1 POP PUSH2 0xD7E PUSH1 0x0 DUP4 ADD DUP5 PUSH2 0xD5A JUMP JUMPDEST SWAP3 SWAP2 POP POP JUMP JUMPDEST PUSH1 0x0 DUP1 REVERT JUMPDEST PUSH2 0xD92 DUP2 PUSH2 0xD50 JUMP JUMPDEST DUP2 EQ PUSH2 0xD9D JUMPI PUSH1 0x0 DUP1 REVERT JUMPDEST POP JUMP JUMPDEST PUSH1 0x0 DUP2 CALLDATALOAD SWAP1 POP PUSH2 0xDAF DUP2 PUSH2 0xD89 JUMP JUMPDEST SWAP3 SWAP2 POP POP JUMP JUMPDEST PUSH1 0x0 PUSH1 0x20 DUP3 DUP5 SUB SLT ISZERO PUSH2 0xDCB JUMPI PUSH2 0xDCA PUSH2 0xD84 JUMP JUMPDEST JUMPDEST PUSH1 0x0 PUSH2 0xDD9 DUP5 DUP3 DUP6 ADD PUSH2 0xDA0 JUMP JUMPDEST SWAP2 POP POP SWAP3 SWAP2 POP POP JUMP JUMPDEST PUSH1 0x0 PUSH20 0xFFFFFFFFFFFFFFFFFFFFFFFFFFFFFFFFFFFFFFFF DUP3 AND SWAP1 POP SWAP2 SWAP1 POP JUMP JUMPDEST PUSH1 0x0 PUSH2 0xE0D DUP3 PUSH2 0xDE2 JUMP JUMPDEST SWAP1 POP SWAP2 SWAP1 POP JUMP JUMPDEST PUSH2 0xE1D DUP2 PUSH2 0xE02 JUMP JUMPDEST DUP3 MSTORE POP POP JUMP JUMPDEST PUSH1 0x0 PUSH1 0x20 DUP3 ADD SWAP1 POP PUSH2 0xE38 PUSH1 0x0 DUP4 ADD DUP5 PUSH2 0xE14 JUMP JUMPDEST SWAP3 SWAP2 POP POP JUMP JUMPDEST PUSH1 0x0 DUP2 ISZERO ISZERO SWAP1 POP SWAP2 SWAP1 POP JUMP JUMPDEST PUSH2 0xE53 DUP2 PUSH2 0xE3E JUMP JUMPDEST DUP3 MSTORE POP POP JUMP JUMPDEST PUSH1 0x0 PUSH1 0x20 DUP3 ADD SWAP1 POP PUSH2 0xE6E PUSH1 0x0 DUP4 ADD DUP5 PUSH2 0xE4A JUMP JUMPDEST SWAP3 SWAP2 POP POP JUMP JUMPDEST PUSH1 0x0 PUSH1 0x40 DUP3 ADD SWAP1 POP PUSH2 0xE89 PUSH1 0x0 DUP4 ADD DUP6 PUSH2 0xE14 JUMP JUMPDEST PUSH2 0xE96 PUSH1 0x20 DUP4 ADD DUP5 PUSH2 0xD5A JUMP JUMPDEST SWAP4 SWAP3 POP POP POP JUMP JUMPDEST PUSH1 0x0 DUP3 DUP3 MSTORE PUSH1 0x20 DUP3 ADD SWAP1 POP SWAP3 SWAP2 POP POP JUMP JUMPDEST PUSH32 0x4E6F7420746865206F776E657200000000000000000000000000000000000000 PUSH1 0x0 DUP3 ADD MSTORE POP JUMP JUMPDEST PUSH1 0x0 PUSH2 0xEE4 PUSH1 0xD DUP4 PUSH2 0xE9D JUMP JUMPDEST SWAP2 POP PUSH2 0xEEF DUP3 PUSH2 0xEAE JUMP JUMPDEST PUSH1 0x20 DUP3 ADD SWAP1 POP SWAP2 SWAP1 POP JUMP JUMPDEST PUSH1 0x0 PUSH1 0x20 DUP3 ADD SWAP1 POP DUP2 DUP2 SUB PUSH1 0x0 DUP4 ADD MSTORE PUSH2 0xF13 DUP2 PUSH2 0xED7 JUMP JUMPDEST SWAP1 POP SWAP2 SWAP1 POP JUMP JUMPDEST PUSH32 0x4C6F747465727920726F756E64206973207374696C6C20616374697665000000 PUSH1 0x0 DUP3 ADD MSTORE POP JUMP JUMPDEST PUSH1 0x0 PUSH2 0xF50 PUSH1 0x1D DUP4 PUSH2 0xE9D JUMP JUMPDEST SWAP2 POP PUSH2 0xF5B DUP3 PUSH2 0xF1A JUMP JUMPDEST PUSH1 0x20 DUP3 ADD SWAP1 POP SWAP2 SWAP1 POP JUMP JUMPDEST PUSH1 0x0 PUSH1 0x20 DUP3 ADD SWAP1 POP DUP2 DUP2 SUB PUSH1 0x0 DUP4 ADD MSTORE PUSH2 0xF7F DUP2 PUSH2 0xF43 JUMP JUMPDEST SWAP1 POP SWAP2 SWAP1 POP JUMP JUMPDEST PUSH32 0x4E6F7420656E6F756768207061727469636970616E7473000000000000000000 PUSH1 0x0 DUP3 ADD MSTORE POP JUMP JUMPDEST PUSH1 0x0 PUSH2 0xFBC PUSH1 0x17 DUP4 PUSH2 0xE9D JUMP JUMPDEST SWAP2 POP PUSH2 0xFC7 DUP3 PUSH2 0xF86 JUMP JUMPDEST PUSH1 0x20 DUP3 ADD SWAP1 POP SWAP2 SWAP1 POP JUMP JUMPDEST PUSH1 0x0 PUSH1 0x20 DUP3 ADD SWAP1 POP DUP2 DUP2 SUB PUSH1 0x0 DUP4 ADD MSTORE PUSH2 0xFEB DUP2 PUSH2 0xFAF JUMP JUMPDEST SWAP1 POP SWAP2 SWAP1 POP JUMP JUMPDEST PUSH32 0x4E487B7100000000000000000000000000000000000000000000000000000000 PUSH1 0x0 MSTORE PUSH1 0x32 PUSH1 0x4 MSTORE PUSH1 0x24 PUSH1 0x0 REVERT JUMPDEST PUSH32 0x4E487B7100000000000000000000000000000000000000000000000000000000 PUSH1 0x0 MSTORE PUSH1 0x11 PUSH1 0x4 MSTORE PUSH1 0x24 PUSH1 0x0 REVERT JUMPDEST PUSH1 0x0 PUSH2 0x105B DUP3 PUSH2 0xD50 JUMP JUMPDEST SWAP2 POP PUSH2 0x1066 DUP4 PUSH2 0xD50 JUMP JUMPDEST SWAP3 POP DUP3 DUP3 ADD SWAP1 POP DUP1 DUP3 GT ISZERO PUSH2 0x107E JUMPI PUSH2 0x107D PUSH2 0x1021 JUMP JUMPDEST JUMPDEST SWAP3 SWAP2 POP POP JUMP JUMPDEST PUSH1 0x0 PUSH1 0x60 DUP3 ADD SWAP1 POP PUSH2 0x1099 PUSH1 0x0 DUP4 ADD DUP7 PUSH2 0xE14 JUMP JUMPDEST PUSH2 0x10A6 PUSH1 0x20 DUP4 ADD DUP6 PUSH2 0xE14 JUMP JUMPDEST PUSH2 0x10B3 PUSH1 0x40 DUP4 ADD DUP5 PUSH2 0xE14 JUMP JUMPDEST SWAP5 SWAP4 POP POP POP POP JUMP JUMPDEST PUSH32 0x4C6F747465727920726F756E64206973206E6F74206163746976650000000000 PUSH1 0x0 DUP3 ADD MSTORE POP JUMP JUMPDEST PUSH1 0x0 PUSH2 0x10F1 PUSH1 0x1B DUP4 PUSH2 0xE9D JUMP JUMPDEST SWAP2 POP PUSH2 0x10FC DUP3 PUSH2 0x10BB JUMP JUMPDEST PUSH1 0x20 DUP3 ADD SWAP1 POP SWAP2 SWAP1 POP JUMP JUMPDEST PUSH1 0x0 PUSH1 0x20 DUP3 ADD SWAP1 POP DUP2 DUP2 SUB PUSH1 0x0 DUP4 ADD MSTORE PUSH2 0x1120 DUP2 PUSH2 0x10E4 JUMP JUMPDEST SWAP1 POP SWAP2 SWAP1 POP JUMP JUMPDEST PUSH1 0x0 PUSH2 0x1132 DUP3 PUSH2 0xD50 JUMP JUMPDEST SWAP2 POP PUSH2 0x113D DUP4 PUSH2 0xD50 JUMP JUMPDEST SWAP3 POP DUP3 DUP3 MUL PUSH2 0x114B DUP2 PUSH2 0xD50 JUMP JUMPDEST SWAP2 POP DUP3 DUP3 DIV DUP5 EQ DUP4 ISZERO OR PUSH2 0x1162 JUMPI PUSH2 0x1161 PUSH2 0x1021 JUMP JUMPDEST JUMPDEST POP SWAP3 SWAP2 POP POP JUMP JUMPDEST PUSH32 0x496E636F7272656374207061796D656E74000000000000000000000000000000 PUSH1 0x0 DUP3 ADD MSTORE POP JUMP JUMPDEST PUSH1 0x0 PUSH2 0x119F PUSH1 0x11 DUP4 PUSH2 0xE9D JUMP JUMPDEST SWAP2 POP PUSH2 0x11AA DUP3 PUSH2 0x1169 JUMP JUMPDEST PUSH1 0x20 DUP3 ADD SWAP1 POP SWAP2 SWAP1 POP JUMP JUMPDEST PUSH1 0x0 PUSH1 0x20 DUP3 ADD SWAP1 POP DUP2 DUP2 SUB PUSH1 0x0 DUP4 ADD MSTORE PUSH2 0x11CE DUP2 PUSH2 0x1192 JUMP JUMPDEST SWAP1 POP SWAP2 SWAP1 POP JUMP JUMPDEST PUSH1 0x0 PUSH2 0x11E0 DUP3 PUSH2 0xD50 JUMP JUMPDEST SWAP2 POP PUSH2 0x11EB DUP4 PUSH2 0xD50 JUMP JUMPDEST SWAP3 POP DUP3 DUP3 SUB SWAP1 POP DUP2 DUP2 GT ISZERO PUSH2 0x1203 JUMPI PUSH2 0x1202 PUSH2 0x1021 JUMP JUMPDEST JUMPDEST SWAP3 SWAP2 POP POP JUMP JUMPDEST PUSH1 0x0 DUP2 SWAP1 POP SWAP2 SWAP1 POP JUMP JUMPDEST PUSH2 0x1224 PUSH2 0x121F DUP3 PUSH2 0xD50 JUMP JUMPDEST PUSH2 0x1209 JUMP JUMPDEST DUP3 MSTORE POP POP JUMP JUMPDEST PUSH1 0x0 PUSH2 0x1236 DUP3 DUP7 PUSH2 0x1213 JUMP JUMPDEST PUSH1 0x20 DUP3 ADD SWAP2 POP PUSH2 0x1246 DUP3 DUP6 PUSH2 0x1213 JUMP JUMPDEST PUSH1 0x20 DUP3 ADD SWAP2 POP PUSH2 0x1256 DUP3 DUP5 PUSH2 0x1213 JUMP JUMPDEST PUSH1 0x20 DUP3 ADD SWAP2 POP DUP2 SWAP1 POP SWAP5 SWAP4 POP POP POP POP JUMP JUMPDEST PUSH32 0x4E487B7100000000000000000000000000000000000000000000000000000000 PUSH1 0x0 MSTORE PUSH1 0x12 PUSH1 0x4 MSTORE PUSH1 0x24 PUSH1 0x0 REVERT JUMPDEST PUSH1 0x0 PUSH2 0x12A1 DUP3 PUSH2 0xD50 JUMP JUMPDEST SWAP2 POP PUSH2 0x12AC DUP4 PUSH2 0xD50 JUMP JUMPDEST SWAP3 POP DUP3 PUSH2 0x12BC JUMPI PUSH2 0x12BB PUSH2 0x1267 JUMP JUMPDEST JUMPDEST DUP3 DUP3 MOD SWAP1 POP SWAP3 SWAP2 POP POP JUMP INVALID LOG2 PUSH5 0x6970667358 0x22 SLT KECCAK256 0xD1 PUSH4 0x15D28598 SGT PUSH24 0xE39C1ADE572386EB66567E72D70B12A7D420008F78E3CBAE PUSH5 0x736F6C6343 STOP ADDMOD SHR STOP CALLER "},"methodIdentifiers":{"FIRST_PRIZE()":"0098071a","PRIZE_POOL_THRESHOLD()":"e26ab09c","SECOND_PRIZE()":"99fb5af9","THIRD_PRIZE()":"c5b2067a","TICKET_PRICE()":"1a95f15f","buyTickets(uint256)":"2f366637","isRoundActive()":"45945a45","owner()":"8da5cb5b","participants(uint256)":"35c1d349","pastWinners(uint256)":"e499e79c","prizePool()":"719ce73e","roundNumber()":"4e2786fb","selectWinners()":"1a0de74c","withdrawFunds()":"24600fc3"}}}}}