{
  "_format": "hh-sol-artifact-1",
  "contractName": "Lottery",
  "sourceName": "contracts/Lottery.sol",
  "abi": [
    {
      "inputs": [],
      "stateMutability": "nonpayable",
      "type": "constructor"
    },
    {
      "anonymous": false,
      "inputs": [
        {
          "indexed": true,
          "internalType": "address",
          "name": "buyer",
          "type": "address"
        },
        {
          "indexed": false,
          "internalType": "uint256",
          "name": "amount",
          "type": "uint256"
        }
      ],
      "name": "TicketPurchased",
      "type": "event"
    },
    {
      "anonymous": false,
      "inputs": [
        {
          "indexed": false,
          "internalType": "address",
          "name": "first",
          "type": "address"
        },
        {
          "indexed": false,
          "internalType": "address",
          "name": "second",
          "type": "address"
        },
        {
          "indexed": false,
          "internalType": "address",
          "name": "third",
          "type": "address"
        }
      ],
      "name": "WinnersSelected",
      "type": "event"
    },
    {
      "inputs": [],
      "name": "FIRST_PRIZE",
      "outputs": [
        {
          "internalType": "uint256",
          "name": "",
          "type": "uint256"
        }
      ],
      "stateMutability": "view",
      "type": "function"
    },
    {
      "inputs": [],
      "name": "PRIZE_POOL_THRESHOLD",
      "outputs": [
        {
          "internalType": "uint256",
          "name": "",
          "type": "uint256"
        }
      ],
      "stateMutability": "view",
      "type": "function"
    },
    {
      "inputs": [],
      "name": "SECOND_PRIZE",
      "outputs": [
        {
          "internalType": "uint256",
          "name": "",
          "type": "uint256"
        }
      ],
      "stateMutability": "view",
      "type": "function"
    },
    {
      "inputs": [],
      "name": "THIRD_PRIZE",
      "outputs": [
        {
          "internalType": "uint256",
          "name": "",
          "type": "uint256"
        }
      ],
      "stateMutability": "view",
      "type": "function"
    },
    {
      "inputs": [],
      "name": "TICKET_PRICE",
      "outputs": [
        {
          "internalType": "uint256",
          "name": "",
          "type": "uint256"
        }
      ],
      "stateMutability": "view",
      "type": "function"
    },
    {
      "inputs": [
        {
          "internalType": "uint256",
          "name": "numberOfTickets",
          "type": "uint256"
        }
      ],
      "name": "buyTickets",
      "outputs": [],
      "stateMutability": "payable",
      "type": "function"
    },
    {
      "inputs": [],
      "name": "isRoundActive",
      "outputs": [
        {
          "internalType": "bool",
          "name": "",
          "type": "bool"
        }
      ],
      "stateMutability": "view",
      "type": "function"
    },
    {
      "inputs": [],
      "name": "owner",
      "outputs": [
        {
          "internalType": "address",
          "name": "",
          "type": "address"
        }
      ],
      "stateMutability": "view",
      "type": "function"
    },
    {
      "inputs": [
        {
          "internalType": "uint256",
          "name": "",
          "type": "uint256"
        }
      ],
      "name": "participants",
      "outputs": [
        {
          "internalType": "address",
          "name": "",
          "type": "address"
        }
      ],
      "stateMutability": "view",
      "type": "function"
    },
    {
      "inputs": [
        {
          "internalType": "uint256",
          "name": "",
          "type": "uint256"
        }
      ],
      "name": "pastWinners",
      "outputs": [
        {
          "internalType": "address",
          "name": "winnerAddress",
          "type": "address"
        },
        {
          "internalType": "uint256",
          "name": "prizeAmount",
          "type": "uint256"
        }
      ],
      "stateMutability": "view",
      "type": "function"
    },
    {
      "inputs": [],
      "name": "prizePool",
      "outputs": [
        {
          "internalType": "uint256",
          "name": "",
          "type": "uint256"
        }
      ],
      "stateMutability": "view",
      "type": "function"
    },
    {
      "inputs": [],
      "name": "roundNumber",
      "outputs": [
        {
          "internalType": "uint256",
          "name": "",
          "type": "uint256"
        }
      ],
      "stateMutability": "view",
      "type": "function"
    },
    {
      "inputs": [],
      "name": "selectWinners",
      "outputs": [],
      "stateMutability": "nonpayable",
      "type": "function"
    },
    {
      "inputs": [],
      "name": "withdrawFunds",
      "outputs": [],
      "stateMutability": "nonpayable",
      "type": "function"
    }
  ],
  "bytecode": "0x6080604052348015600f57600080fd5b50336000806101000a81548173ffffffffffffffffffffffffffffffffffffffff021916908373ffffffffffffffffffffffffffffffffffffffff1602179055506001600260006101000a81548160ff02191690831515021790555060016005819055506112fd806100826000396000f3fe6080604052600436106100dc5760003560e01c80634e2786fb1161007f57806399fb5af91161005957806399fb5af91461026a578063c5b2067a14610295578063e26ab09c146102c0578063e499e79c146102eb576100dc565b80634e2786fb146101e9578063719ce73e146102145780638da5cb5b1461023f576100dc565b806324600fc3116100bb57806324600fc31461014e5780632f3666371461016557806335c1d3491461018157806345945a45146101be576100dc565b806298071a146100e15780631a0de74c1461010c5780631a95f15f14610123575b600080fd5b3480156100ed57600080fd5b506100f6610329565b6040516101039190610d69565b60405180910390f35b34801561011857600080fd5b50610121610335565b005b34801561012f57600080fd5b50610138610910565b6040516101459190610d69565b60405180910390f35b34801561015a57600080fd5b5061016361091c565b005b61017f600480360381019061017a9190610db5565b610a13565b005b34801561018d57600080fd5b506101a860048036038101906101a39190610db5565b610bca565b6040516101b59190610e23565b60405180910390f35b3480156101ca57600080fd5b506101d3610c09565b6040516101e09190610e59565b60405180910390f35b3480156101f557600080fd5b506101fe610c1c565b60405161020b9190610d69565b60405180910390f35b34801561022057600080fd5b50610229610c22565b6040516102369190610d69565b60405180910390f35b34801561024b57600080fd5b50610254610c28565b6040516102619190610e23565b60405180910390f35b34801561027657600080fd5b5061027f610c4c565b60405161028c9190610d69565b60405180910390f35b3480156102a157600080fd5b506102aa610c58565b6040516102b79190610d69565b60405180910390f35b3480156102cc57600080fd5b506102d5610c64565b6040516102e29190610d69565b60405180910390f35b3480156102f757600080fd5b50610312600480360381019061030d9190610db5565b610c70565b604051610320929190610e74565b60405180910390f35b6722b1c8c1227a000081565b60008054906101000a900473ffffffffffffffffffffffffffffffffffffffff1673ffffffffffffffffffffffffffffffffffffffff163373ffffffffffffffffffffffffffffffffffffffff16146103c3576040517f08c379a00000000000000000000000000000000000000000000000000000000081526004016103ba90610efa565b60405180910390fd5b600260009054906101000a900460ff1615610413576040517f08c379a000000000000000000000000000000000000000000000000000000000815260040161040a90610f66565b60405180910390fd5b60038080549050101561045b576040517f08c379a000000000000000000000000000000000000000000000000000000000815260040161045290610fd2565b60405180910390fd5b600061046d6000600380549050610cb4565b905060006104816000600380549050610cb4565b905060006104956000600380549050610cb4565b90505b8282036104b6576104af6000600380549050610cb4565b9150610498565b5b828114806104c457508181145b156104e0576104d96000600380549050610cb4565b90506104b7565b6000600384815481106104f6576104f5610ff2565b5b9060005260206000200160009054906101000a900473ffffffffffffffffffffffffffffffffffffffff16905060006003848154811061053957610538610ff2565b5b9060005260206000200160009054906101000a900473ffffffffffffffffffffffffffffffffffffffff16905060006003848154811061057c5761057b610ff2565b5b9060005260206000200160009054906101000a900473ffffffffffffffffffffffffffffffffffffffff1690508273ffffffffffffffffffffffffffffffffffffffff166108fc6722b1c8c1227a00009081150290604051600060405180830381858888f193505050501580156105f7573d6000803e3d6000fd5b508173ffffffffffffffffffffffffffffffffffffffff166108fc6714d1120d7b1600009081150290604051600060405180830381858888f19350505050158015610646573d6000803e3d6000fd5b508073ffffffffffffffffffffffffffffffffffffffff166108fc670de0b6b3a76400009081150290604051600060405180830381858888f19350505050158015610695573d6000803e3d6000fd5b5060405180604001604052808473ffffffffffffffffffffffffffffffffffffffff1681526020016722b1c8c1227a000081525060046000600554815260200190815260200160002060008201518160000160006101000a81548173ffffffffffffffffffffffffffffffffffffffff021916908373ffffffffffffffffffffffffffffffffffffffff1602179055506020820151816001015590505060405180604001604052808373ffffffffffffffffffffffffffffffffffffffff1681526020016714d1120d7b1600008152506004600060016005546107789190611050565b815260200190815260200160002060008201518160000160006101000a81548173ffffffffffffffffffffffffffffffffffffffff021916908373ffffffffffffffffffffffffffffffffffffffff1602179055506020820151816001015590505060405180604001604052808273ffffffffffffffffffffffffffffffffffffffff168152602001670de0b6b3a76400008152506004600060026005546108209190611050565b815260200190815260200160002060008201518160000160006101000a81548173ffffffffffffffffffffffffffffffffffffffff021916908373ffffffffffffffffffffffffffffffffffffffff160217905550602082015181600101559050507fb261c3fa2e09c08a6ff87c99dee9759aa7c1e92afc3ff91467e22c7cf26553a98383836040516108b593929190611084565b60405180910390a16000600181905550600360006108d39190610d12565b6001600260006101000a81548160ff0219169083151502179055506003600560008282546109019190611050565b92505081905550505050505050565b6703782dace9d9000081565b60008054906101000a900473ffffffffffffffffffffffffffffffffffffffff1673ffffffffffffffffffffffffffffffffffffffff163373ffffffffffffffffffffffffffffffffffffffff16146109aa576040517f08c379a00000000000000000000000000000000000000000000000000000000081526004016109a190610efa565b60405180910390fd5b60008054906101000a900473ffffffffffffffffffffffffffffffffffffffff1673ffffffffffffffffffffffffffffffffffffffff166108fc479081150290604051600060405180830381858888f19350505050158015610a10573d6000803e3d6000fd5b50565b600260009054906101000a900460ff16610a62576040517f08c379a0000000000000000000000000000000000000000000000000000000008152600401610a5990611107565b60405180910390fd5b6703782dace9d9000081610a769190611127565b3414610ab7576040517f08c379a0000000000000000000000000000000000000000000000000000000008152600401610aae906111b5565b60405180910390fd5b60005b81811015610b32576003339080600181540180825580915050600190039060005260206000200160009091909190916101000a81548173ffffffffffffffffffffffffffffffffffffffff021916908373ffffffffffffffffffffffffffffffffffffffff1602179055508080600101915050610aba565b503460016000828254610b459190611050565b925050819055503373ffffffffffffffffffffffffffffffffffffffff167f0668f5b446eb814fe35b3206f43f14bd8567ba04ddaf7a3ee56516929ab22ccb82604051610b929190610d69565b60405180910390a2674563918244f4000060015410610bc7576000600260006101000a81548160ff0219169083151502179055505b50565b60038181548110610bda57600080fd5b906000526020600020016000915054906101000a900473ffffffffffffffffffffffffffffffffffffffff1681565b600260009054906101000a900460ff1681565b60055481565b60015481565b60008054906101000a900473ffffffffffffffffffffffffffffffffffffffff1681565b6714d1120d7b16000081565b670de0b6b3a764000081565b674563918244f4000081565b60046020528060005260406000206000915090508060000160009054906101000a900473ffffffffffffffffffffffffffffffffffffffff16908060010154905082565b6000828383610cc391906111d5565b4244600380549050604051602001610cdd9392919061122a565b6040516020818303038152906040528051906020012060001c610d009190611296565b610d0a9190611050565b905092915050565b5080546000825590600052602060002090810190610d309190610d33565b50565b5b80821115610d4c576000816000905550600101610d34565b5090565b6000819050919050565b610d6381610d50565b82525050565b6000602082019050610d7e6000830184610d5a565b92915050565b600080fd5b610d9281610d50565b8114610d9d57600080fd5b50565b600081359050610daf81610d89565b92915050565b600060208284031215610dcb57610dca610d84565b5b6000610dd984828501610da0565b91505092915050565b600073ffffffffffffffffffffffffffffffffffffffff82169050919050565b6000610e0d82610de2565b9050919050565b610e1d81610e02565b82525050565b6000602082019050610e386000830184610e14565b92915050565b60008115159050919050565b610e5381610e3e565b82525050565b6000602082019050610e6e6000830184610e4a565b92915050565b6000604082019050610e896000830185610e14565b610e966020830184610d5a565b9392505050565b600082825260208201905092915050565b7f4e6f7420746865206f776e657200000000000000000000000000000000000000600082015250565b6000610ee4600d83610e9d565b9150610eef82610eae565b602082019050919050565b60006020820190508181036000830152610f1381610ed7565b9050919050565b7f4c6f747465727920726f756e64206973207374696c6c20616374697665000000600082015250565b6000610f50601d83610e9d565b9150610f5b82610f1a565b602082019050919050565b60006020820190508181036000830152610f7f81610f43565b9050919050565b7f4e6f7420656e6f756768207061727469636970616e7473000000000000000000600082015250565b6000610fbc601783610e9d565b9150610fc782610f86565b602082019050919050565b60006020820190508181036000830152610feb81610faf565b9050919050565b7f4e487b7100000000000000000000000000000000000000000000000000000000600052603260045260246000fd5b7f4e487b7100000000000000000000000000000000000000000000000000000000600052601160045260246000fd5b600061105b82610d50565b915061106683610d50565b925082820190508082111561107e5761107d611021565b5b92915050565b60006060820190506110996000830186610e14565b6110a66020830185610e14565b6110b36040830184610e14565b949350505050565b7f4c6f747465727920726f756e64206973206e6f74206163746976650000000000600082015250565b60006110f1601b83610e9d565b91506110fc826110bb565b602082019050919050565b60006020820190508181036000830152611120816110e4565b9050919050565b600061113282610d50565b915061113d83610d50565b925082820261114b81610d50565b9150828204841483151761116257611161611021565b5b5092915050565b7f496e636f7272656374207061796d656e74000000000000000000000000000000600082015250565b600061119f601183610e9d565b91506111aa82611169565b602082019050919050565b600060208201905081810360008301526111ce81611192565b9050919050565b60006111e082610d50565b91506111eb83610d50565b925082820390508181111561120357611202611021565b5b92915050565b6000819050919050565b61122461121f82610d50565b611209565b82525050565b60006112368286611213565b6020820191506112468285611213565b6020820191506112568284611213565b602082019150819050949350505050565b7f4e487b7100000000000000000000000000000000000000000000000000000000600052601260045260246000fd5b60006112a182610d50565b91506112ac83610d50565b9250826112bc576112bb611267565b5b82820690509291505056fea2646970667358221220d16315d285981377e39c1ade572386eb66567e72d70b12a7d420008f78e3cbae64736f6c634300081c0033",
  "linkReferences": {},
  "deployedLinkReferences": {}
}